:100000000C947C040C94FB2D0C94D02D0C94A52DF9
:100010000C947A2D0C944F2D0C94242D0C94F92CC7
:100020000C94CE2C0C948E300C948E300C948E301C
:100030000C94AD040C94262E0C94AD040C94AD04D9
:100040000C94AD040C9460300C94AD040C94AD048D
:100050000C94AD040C94AD040C94AD040C94842C5D
:100060000C94AD040C94AC2F0C94822F0C94AD0422
:100070000C94AD040C94AD040C94AD040C94AD043C
:100080000C9432300C94AD040C94AD040C94AD047B
:100090000C94582F0C942E2F0C94AD040C940A3110
:1000A0000C94AD040C94AD040C9404300C94AD0489
:1000B0000C94AD040C94AD040C94AD040C94D62FA8
:1000C0000C94AD040C94AD040C94AD040C94042F6A
:1000D0000C94DA2E0C94AD040C94B02E0C94862E55
:1000E0000C94AD040C94D40F0C947B080C945A25FA
:1000F0000C9441130C94DB060C9402070C94DF065D
:100100000C941F270C942C1E0C9490080C94AD1684
:100110000C9488180C9416070C945A100C94F01731
:100120000C94AD130C94EE110C94FA060C94CB16AF
:100130000C94BA0F0C94E3060C948A140C94941645
:100140000C94DA080C944F170C94DA170C94541092
:100150000C9459210C948D210C94B8110C943310EB
:100160000C94B7160C94C9170C9421130C9488089E
:100170000C9460100C9497210C9463100C94382606
:100180000C94B7110C940C070C94052B0C9450157F
:100190000C94E2160C94D5120C946E160C94321E2C
:1001A0000C9462120C9451090C940F270C940110BA
:1001B0000C9413270C941A070C9487250C94CD0FDC
:1001C0000C947F0D0C949F210C94B9120C94F4277D
:1001D0000C94CB170C948B210C94DC210C94932160
:1001E0000C9443090C94A90F0C94C1160C94701430
:1001F0000C94EF110C94CF110C94CA130C94E417C7
:100200000C943D160C9486080C94D5060C944E1054
:100210000C9410070C9422270C9492080C944B1009
:100220000C94D9120C9412170C94C5110C94AB0FAA
:100230000C9493320C940F0A0C948C080C94A31613
:100240000C9430100C94CC170C94CA170C94660DB7
:100250000C942F090C94EA210C941B270C949013F6
:100260000C94D7120C94CE170C94E7060C94E91A50
:100270000C948E080C94CD170C94DF150C949D21D2
:100280000C9485130C94DB0D0C94BB250C94642703
:100290000C94B1110C949B210C94D5160C94182B32
:1002A0000C9495210C94E1160C947A140C94F0069D
:1002B0000C9425270C94FD120C9415070C946610D1
:1002C0000C947E0D0C9452160C94F10D0C94EE17B8
:1002D0000C9491210C9480160C94A8170C94A709E7
:1002E0000C94A1210C9458130C9416170C94FB2118
:1002F0000C94C8210C9486130C9439210C94A912E7
:100300000C9476160C9493110C94C2140C94511006
:100310000C94E11F0C948A160C94FE060C949921FF
:100320000C942F120C94D1150C94081B0C94AA0F4A
:100330000C9443160C948F210C94EA060C9420091B
:100340000C94D8120C946F140C9466160C945D10D7
:100350000C948F170C9495120C9408070C94940825
:100360000C94A01F0C945C160C94C42A0C94481690
:100370000C948A080C94F4060C9410120C945721D7
:100380000C94A0190C94AF130C94D8170C94A321BF
:100390004572726F7220696E205350495F44415418
:1003A0004120636F6D6D616E643A20656D70747984
:1003B000206D657373616765004572726F722065A9
:1003C0006E61626C696E6720535049206D6F646581
:1003D000005350492E626567696E282900535049C1
:1003E0005F424547494E3A204F6E6C792063686101
:1003F0006E6E656C203020737570706F72746564FA
:10040000004E657720535049206465766963652006
:10041000256420616C6C6F63617465642077697416
:100420006820696E64657820256420616E642043CD
:10043000532025642C20636C6F636B20737065659B
:100440006420256420487A005350495F444556494A
:1004500043455F434F4E4649473A204F6E6C7920E3
:100460006368616E6E656C203020737570706F729A
:100470007465643A20005350495F444556494345EA
:100480005F434F4E4649473A204F6E6C79203820E3
:1004900062697420776F72647320737570706F7205
:1004A000746564005350495F4445564943455F4372
:1004B0004F4E4649473A204D6178206E756D626512
:1004C00072206F6620646576696365732065786362
:1004D0006565646564004E6F7420656E6F7567684E
:1004E000206461746120696E205350495F44455611
:1004F0004943455F434F4E464947206D65737361DD
:10050000676500556E6B6E6F776E205350492063A0
:100510006F6D6D616E643A20005350495F545241D3
:100520004E534645523A2053656E642062756666A6
:100530006572206E6F74206C6172676520656E6FE6
:10054000756768005350495F5452414E53464552B7
:100550003A20556E6B6E6F776E20646576696365C1
:100560004964207370656369666965643A20004E6A
:100570006F7420656E6F75676820646174612069AF
:100580006E20535049206D65737361676500535049
:1005900049206E6F7420656E61626C65642E005335
:1005A00050492E656E642829004572726F72206969
:1005B0006E2044485420636F6D6D616E643A204E26
:1005C0006F7420656E6F75676820706172616D650C
:1005D00074657273004572726F7220696E20536F7A
:1005E0006E617220636F6D6D616E643A204E6F7440
:1005F00020656E6F75676820706172616D657465E6
:100600007273004572726F7220696E2042557A7A59
:10061000657220636F6D6D616E643A204E6F742059
:10062000656E6F75676820706172616D6574657263
:100630007320666F722062757A7A657220746F6EAD
:1006400065004572726F7220696E2042757A7A6514
:100650007220636F6D6D616E643A204E6F74206519
:100660006E6F75676820706172616D657465727315
:1006700000556E6B6E6F776E2070696E206D6F64C3
:100680006500556E68616E646C656420737973658E
:100690007820636F6D6D616E643A20307825782024
:1006A000286C656E3A20256429004E6F7420656EB3
:1006B0006F75676820627974657320696E2053597D
:1006C0005354454D5F5641524941424C45206D655A
:1006D00073736167650043616E6E6F742063686158
:1006E0006E67652070696E206E756D626572207729
:1006F00068696C652061637469766500496E76612E
:100700006C69642070696E206E756D62657220661A
:100710006F72206672657175656E637920636F6DA7
:100720006D616E64004932433A20546F6F206D61F1
:100730006E79206279746573207265636569766588
:100740006400746F6F206D616E79207175657269D8
:1007500065730031302D6269742061646472657361
:1007600073696E67206E6F7420737570706F72742A
:1007700065640053706563696679207365726961A9
:100780006C20525820616E642054582070696E733A
:100790000002426F6F74696E6720646576696365F5
:1007A0002E205374616E642062792E2E2E004469CF
:1007B0007363617264696E6720696E707574206D11
:1007C0006573736167652C206F7574206F66206296
:1007D00075666665720000002100240027002A006B
:1007E0002D003000330001010000040107010A015F
:1007F00000000A0B02090C0D0E080703040100009B
:1008000000000000000000000000000000000000E8
:1008100000000000000000000000000012111000A5
:1008200000000000000000000000000000000000C8
:100830000000000000000000200023002600290026
:100840002C002F0032000001000003010601090105
:1008500000002200250028002B002E00310034006B
:1008600002010000050108010B010505050507054A
:1008700008080808020202020A0A0808040404041C
:100880000101010101010101030303030303030348
:10089000040707070C0C0C0C0C0C0C0C02020202D7
:1008A00006060606060606060B0B0B0B0B0B0B0BC0
:1008B0000102102020080810204010204080020172
:1008C0000201080402010102040810204080804057
:1008D0002010080402018004020180402010080456
:1008E00002010804020101020408102040800102F4
:1008F000040810204080933211241FBECFEFD1E2B4
:10090000DEBFCDBF00E00CBF13E0A0E0B2E0E0E747
:10091000FEE700E00BBF02C007900D92A638B107BA
:10092000D9F72AE0A6E8B3E001C01D92A73AB207C2
:10093000E1F714E0CCE7D4E000E006C0219701091C
:10094000802FFE010E94323ACB37D10780E00807A2
:10095000A9F70E94E8340C94363F0C940000A09153
:10096000CF07B091D007ED91FC9111970190F081E4
:10097000E02D682FCD011994282F30E02153384FF6
:10098000F901E45BFF4F90819F3769F02E563F4F8E
:10099000D9011C926083E091AF08F091B0083097C4
:1009A00011F070E0199408958091CF079091D007CD
:1009B000DC01ED91FC910190F081E02D60EF199444
:1009C000CF93DF93CFECD7E088819981DC01ED9163
:1009D000FC910190F081E02D67EF19958881998154
:1009E000DC01ED91FC910680F781E02DDF91CF9144
:1009F00019940F931F93FC012081418150E070E016
:100A000060E087E0440F551F661F771F8A95D1F776
:100A1000828190E0B0E0A0E03EE0880F991FAA1F1D
:100A2000BB1F3A95D1F7842B952BA62BB72BAC0186
:100A3000BD01422B038110E030E020E0A5E1000F72
:100A4000111F221F331FAA95D1F7042B152B262B1C
:100A5000372B848190E0B0E0A0E0BC01CD01BCE187
:100A6000660F771F881F991FBA95D1F7602B712BDE
:100A7000822B932B1F910F9108950F931F93CF9368
:100A8000DF93EC010FEC17E0D8018D919C916C2F56
:100A90006F77DC01ED91FC910190F081E02D1995CB
:100AA000F80180819181CC0FCD2FCC1FDD0B6C2FF5
:100AB0006F77DC01ED91FC910190F081E02DDF91E9
:100AC000CF911F910F911994CF92DF92EF92FF92E5
:100AD0006B017C01862F8F770E94AF04D701C6017E
:100AE00027E0B695A795979587952A95D1F78F77A3
:100AF0000E94AF04D701C6013EE0B695A795979531
:100B000087953A95D1F78F770E94AF04D701C60138
:100B100045E1B695A795979587954A95D1F78F7733
:100B20000E94AF04D701C6015CE1B695A7959795E1
:100B300087955A95D1F7FF90EF90DF90CF900C9466
:100B4000AF04CF93DF93CFECD7E088819981DC01AC
:100B5000ED91FC910190F081E02D69EF199588816C
:100B60009981DC01ED91FC910190F081E02D62E032
:100B7000199588819981DC01ED91FC910190F081BA
:100B8000E02D67E0DF91CF911994CF92DF92EF9241
:100B9000FF92CF93DF93EC016A017B01E889F98929
:100BA00082E08083C11481EED806E104F104A1F053
:100BB00060E079E08DE390E0A70196010E94393969
:100BC0002150310941095109569547953795279587
:100BD000211580E1380798F0E889F989108260E8EA
:100BE00074E88EE190E0A70196010E943939215006
:100BF0003109410951095695479537952795EC8557
:100C0000FD853083EE85FF852083188EEC89FD8974
:100C100086E08083EA89FB89808180618083EA891C
:100C2000FB89808188608083EA89FB898081806874
:100C30008083EA89FB8980818F7D8083DF91CF91DA
:100C4000FF90EF90DF90CF900895E0916409E53137
:100C500058F421E02E0F20936409F0E0EE0FFF1FFF
:100C6000E65CF64F91838083089581E08093A70826
:100C70001092D5071092D6071092D707E8EDF7E04B
:100C8000119288E0E831F807D9F71092180810920D
:100C90001A0810921908E091B308F091B40830973F
:100CA00009F019951092A70808950F931F93CF93F9
:100CB000C82F8B01803198F48091CF079091D00795
:100CC0006C2F606EDC01ED91FC910190F081E02DC4
:100CD0001995C801CF911F910F910C943D050E9469
:100CE000D4048091CF079091D007DC01ED91FC9165
:100CF0000190F081E02D6FE619958091CF079091DA
:100D0000D007DC01ED91FC910190F081E02D6C2F7A
:100D10001995C8010E943D05CF911F910F910C9428
:100D2000E004CF93DF9300D0CDB7DEB78F7080693A
:100D30008983862F8F778A83660F672F661F770BCD
:100D40006B838091CF079091D007DC01ED91FC91EE
:100D50000280F381E02D43E050E0BE016F5F7F4FE2
:100D600019950F900F900F90DF91CF9108958150BA
:100D7000823108F05AC0E82FF0E08827ED53F94F90
:100D80008F4F0C94323AE306E706D506DB06DF0602
:100D90001507EA06F006F406FA06FE06020708073B
:100DA0000C071507100716071A07809180008F7728
:100DB000809380000895809180008F7DF9CF80918D
:100DC0008000877FF5CF84B58F7784BD089584B583
:100DD0008F7DFBCF8091B0008F778093B000089516
:100DE0008091B0008F7DF9CF809190008F778093B4
:100DF00090000895809190008F7DF9CF80919000B0
:100E0000877FF5CF8091A0008F778093A000089511
:100E10008091A0008F7DF9CF8091A000877FF5CFD2
:100E2000809120018F778093200108958091200187
:100E30008F7DF9CF80912001877FF5CFCF93DF930E
:100E4000282F30E0F901E051F84F8491F901E05585
:100E5000F74FD491F901E659F74FC491CC23A1F093
:100E600081110E94B706EC2FF0E0EE0FFF1FEA5C45
:100E7000F74FA591B491EC91ED2381E090E009F456
:100E800080E0DF91CF91089580E090E0FACF1F934A
:100E9000CF93DF93282F30E0F901E051F84F849190
:100EA000F901E055F74FD491F901E659F74FC49194
:100EB000CC23A9F0162F81110E94B706EC2FF0E089
:100EC000EE0FFF1FE05BF74FA591B4918FB7F89439
:100ED000EC91111108C0D095DE23DC938FBFDF9118
:100EE000CF911F910895DE2BF8CFCF93DF9390E041
:100EF000FC01E055F74F24918659974FFC018491EE
:100F00008823C9F090E0880F991FFC01EA52F84F3E
:100F1000A591B491FC01E05BF74FC591D4916111AB
:100F20000DC09FB7F8948C91209582238C93888173
:100F3000282328839FBFDF91CF910895623051F419
:100F40009FB7F8943C91822F809583238C93E881FE
:100F50002E2BEFCF8FB7F894EC912E2B2C938FBFC5
:100F6000EACF863308F0865320917B00982F987043
:100F7000277F922B90937B008770806480937C0006
:100F800080917A00806480937A0080917A0086FD57
:100F9000FCCF809178009091790008953FB7F89444
:100FA0008091F1049091F204A091F304B091F404C3
:100FB00026B5A89B05C02F3F19F00196A11DB11DB4
:100FC0003FBFBA2FA92F982F8827BC01CD01620FF0
:100FD000711D811D911D42E0660F771F881F991FAB
:100FE0004A95D1F708958F929F92AF92BF92CF9278
:100FF000DF92EF92FF926B017C010E94CE074B01C2
:101000005C01C114D104E104F104B9F00E94CE07DF
:10101000681979098A099B09683E73408105910521
:1010200080F321E0C21AD108E108F10888EE880EA9
:1010300083E0981EA11CB11CE4CFFF90EF90DF90DD
:10104000CF90BF90AF909F908F9008952FB7F89456
:101050006091ED047091EE048091EF049091F004A2
:101060002FBF08958F929F92AF92BF92CF92DF923F
:10107000EF92FF92CF93C82F0E9426084B015C018C
:10108000F894C090C507D090C607E090C707F090CD
:10109000C80778940E94D4048DE70E94AF0482E0D0
:1010A0000E94AF048C2F0E94AF04C501B4010E94BE
:1010B0006405C701B6010E946405CF91FF90EF90CF
:1010C000DF90CF90BF90AF909F908F900C94E004F2
:1010D000282F30E0883080F4F9018827ED58F74F49
:1010E0008F4F0C94323A8C088E087B08860888084B
:1010F0008A0890089208E898220F331FF901EF5FE1
:10110000FD4F84E998E0918380830895E998F4CFB6
:10111000EA98F2CFEB98F0CFEC98EECFED98ECCFC9
:10112000EE98EACFEF98E8CF0895909100028913E6
:101130000DC0E1E9F7E0E4919FEF90930002E23007
:10114000E1F038F4EE2381F0E13089F060E00C94B6
:101150004707E43049F110F1E530C1F79091730091
:101160009D7F90937300F2CF10926E00EFCF90911D
:101170006F009D7F90936F00E9CF909170009D7FED
:101180009093700091E09093B0009091B100987F9F
:1011900094609093B1001092B300D8CF90917100F9
:1011A0009D7F90937100D2CF909172009D7F90931C
:1011B0007200CCCFAF92BF92CF92DF92EF92FF92AC
:1011C0000F931F93CF93DF936C017B018B01040F6F
:1011D000151FEB015E01AE18BF08C017D10759F00B
:1011E0006991D601ED91FC910190F081E02DC6014D
:1011F0001995892B79F7C501DF91CF911F910F9137
:10120000FF90EF90DF90CF90BF90AF900895FC01DA
:10121000A089B1898C91A689B78982FD0FC09C9164
:10122000818D8F5F8F73228D821749F0A18DAE0F54
:10123000BF2FB11D5D969C93818F08958C91089569
:10124000FC01538D448D252F30E0842F90E0821BCC
:10125000930B541710F0CF96089501970895FC0151
:10126000918D828D981761F0A28DAE0FBF2FB11DA9
:101270005D968C91928D9F5F9F73928F90E0089501
:101280008FEF9FEF0895FC01918D828D981731F0BB
:10129000828DE80FF11D858D90E008958FEF9FEF0F
:1012A0000895FC01918D228D892F90E0805C9F4FE5
:1012B000821B91098F739927089585E495E00E9418
:1012C000510921E0892B09F420E0822F089582EE54
:1012D00095E00E94510921E0892B09F420E0822F3A
:1012E00008958FE796E00E94510921E0892B09F4C7
:1012F00020E0822F08958CE197E00E94510921E0BF
:10130000892B09F420E0822F0895FC01A48DA80FF9
:10131000B92FB11DA35ABF4F2C91848D90E0019637
:101320008F739927848FA689B7892C93A089B18957
:101330008C91837080648C93938D848D981306C0F8
:101340000288F389E02D80818F7D80830895EF925C
:10135000FF920F931F93CF93DF93EC0181E0888F6F
:101360009B8D8C8D98131AC0E889F989808185FF3F
:1013700015C09FB7F894EE89FF896083E889F989E1
:1013800080818370806480839FBF81E090E0DF91E3
:10139000CF911F910F91FF90EF900895F62E0B8D36
:1013A00010E00F5F1F4F0F731127E02E8C8D8E11F1
:1013B0000CC00FB607FCFACFE889F989808185FF58
:1013C000F5CFCE010E948509F1CFEB8DEC0FFD2FFB
:1013D000F11DE35AFF4FF0829FB7F8940B8FEA8913
:1013E000FB8980818062CFCF0F931F93CF93DF93D0
:1013F0008C01D0E0C0E0F801EC0FFD1F6491662382
:1014000041F08CE197E00E94A709892B11F0219609
:10141000F2CFCE01DF91CF911F910F910895CF931D
:10142000DF93EC01888D8823B9F0AA89BB89E8890C
:10143000F9898C9185FD03C0808186FD0DC00FB6B2
:1014400007FCF7CF8C9185FFF2CF808185FFEDCF30
:10145000CE010E948509E9CFDF91CF91089580E008
:1014600090E0892B29F00E947B0981110E940000E5
:1014700080E090E0892B29F00E94710981110E947F
:10148000000080E090E0892B29F00E94670981111B
:101490000E94000080E090E0892B29F00E945D0905
:1014A00081110C9400000895DF92EF92FF920F9348
:1014B0001F93CF93DF93EC01D62E7A0189018881A7
:1014C000803308F067C061E08D2D0E947507888128
:1014D000282F30E0F901EE0FFF1FE20FF31FEB5A48
:1014E000FB4F9D2D9F736081607C692B608320E2A0
:1014F00032E02E193F0937FF02C02D5F3F4F35956F
:10150000279535952795298320E639E0201B310B57
:1015100037FF02C02D5F3F4F3595279535952795AD
:101520002A832CE0622F0E94FE39829FB001112491
:1015300030E020E0AB01420F531FFA01EE0FFF1F16
:10154000E40FF51FEB5AFB4F908196FD16C02F5FFD
:101550003F4F2C30310571F7813029F51092800012
:1015600082E0809381001092850010928400B19AED
:1015700080916F00826080936F00E8818E2F90E0F1
:10158000FC01EE0FFF1FE80FF91FEB5AFB4F8081A4
:10159000806480838881DF91CF911F910F91FF90AC
:1015A000EF90DF900895823061F410929000809364
:1015B0009100109295001092940088BB8093710066
:1015C000DCCF833069F41092A00082E08093A10008
:1015D0001092A5001092A40089BB80937200CDCF19
:1015E0008111CBCF1092200182E0809321011092D3
:1015F0002501109224018ABB80937300BECFAF9265
:10160000BF92CF92DF92EF92FF920F931F93CF93EF
:10161000DF936B017A01EC01CF5ADB4F28813CE06C
:10162000389F8001399F100D1124A0905004B12CD7
:1016300027FF1FC0FB011182108288818F5F888382
:1016400088819801280F311D87FD3A95F6012A15EA
:101650003B051CF488818C30C4F180819181049613
:1016600080349C4908F473C0F6018081918104960E
:1016700070C088819801280F311D87FD3A952A1581
:101680003B05DCF68881A801480F511D87FD5A955E
:10169000FA01EE0FFF1FE40FF51FEB5AFB4F80819D
:1016A00086FFCBCF8881F801E80FF11D87FDFA9501
:1016B000CF01EE0FFF1FE80FF91FEB5AFB4F8081A0
:1016C00060E08F730E944707B8CF808191812881A5
:1016D000A801420F511D27FD5A959A01FA01EE0FFC
:1016E000FF1FE20FF31FEB5AFB4F21813281820F64
:1016F000931FF7019183808388819801280F311D02
:1017000087FD3A95F901EE0FFF1FE20FF31FEB5A29
:10171000FB4F808186FF22C08881080F111D87FD45
:101720001A95F801EE0FFF1FE00FF11FEB5AFB4F68
:10173000808161E08F73DF91CF911F910F91FF90B6
:10174000EF90DF90CF90BF90AF900C94470780E46C
:101750009CE9F701918380838FEF8883DF91CF919C
:101760001F910F91FF90EF90DF90CF90BF90AF90BF
:1017700008950F931F93CF93DF93EC018A81882301
:1017800021F061E088810E94750760E088810E94F5
:10179000470783E090E00197F1F761E088810E94BC
:1017A000470783E290E00197F1F760E088810E94AB
:1017B00047078A81882321F060E088810E947507AD
:1017C0000E94CE076B837C838D839E8389810E94D8
:1017D0001E07892B99F40E94CE070B811C812D8155
:1017E0003E81601B710B820B930B0F81188529853D
:1017F0003A85061717072807390740F70E94CE07D2
:101800006B837C838D839E8389810E941E07892B35
:1018100099F00E94CE070B811C812D813E81601BB7
:10182000710B820B930B0F81188529853A8506175A
:1018300017072807390740F70E94CE072B813C8104
:10184000CB01821B930BDF91CF911F910F910895D4
:10185000CF92DF92EF92FF92CF93DF93DC01179646
:10186000CC911797D0E06111DC2F18962C91189726
:1018700030E0220F331F2A5C374F50E040E0F9017F
:1018800085919491FC01F080BA0190E080E0EF2D09
:10189000EC23ED1310C04F5F5F4F1D96CD90DD9090
:1018A000ED90FC9050976C157D058E059F0538F3E3
:1018B0006FEF7FEFCB01DF91CF91FF90EF90DF9043
:1018C000CF9008958F929F92AF92BF92CF92DF9266
:1018D000EF92FF920F931F93CF93DF93CDB7DEB7B5
:1018E000C054D1400FB6F894DEBF0FBECDBF8C01FF
:1018F0000E942608F801C184D284E384F4849B0109
:10190000AC012C193D094E095F0969017A0130EDDE
:10191000C31637E0D306E104F104A8F48189C05C62
:10192000DE4F0FB6F894DEBF0FBECDBFDF91CF9173
:101930001F910F91FF90EF90DF90CF90BF90AF90ED
:101940009F908F9008956187728783879487148210
:10195000138212821182108262E085810E947507D3
:1019600061E070E080E090E00E94F30761E0F80140
:1019700085810E94750760E0F80185810E94470714
:10198000F80186818551823028F58BE291E101973B
:10199000F1F762E0F80185810E947507F8018289FC
:1019A00090E08230910538F0880F991F880F991FB9
:1019B00005970197F1F7F89460E0C8010E94280CA0
:1019C0006F3F7F4F8F4F9F4F61F4F801118A7894DA
:1019D00080E0A5CF64E170E080E090E00E94F30732
:1019E000D8CF61E0C8010E94280C6F3F7F4F8F4F16
:1019F0009F4F59F39E012F5F3F4F79015E013FEBEF
:101A0000A31A3EEFB30A670160E0C8010E94280CE8
:101A1000F601608371838283938361E0C8010E9431
:101A2000280CF6016483758386839783F8E0CF0ED4
:101A3000D11CCA14DB0441F7789430E020E0F701B0
:101A400080809180A280B3804481558166817781B6
:101A5000FFEF8F169F06AF06BF0631F04F3F8FEFA7
:101A600058076807780719F4F801118AB1CFF9010E
:101A700083E0F595E7958A95E1F7E00FF11F808106
:101A8000880F84169506A606B706F0F080832F5FB0
:101A90003F4FF8E0EF0EF11C2832310581F6F801D6
:101AA000448120818181280F3327331F8281280FB1
:101AB000311D8381820F932F911D99274817190695
:101AC00099F681E0818B2BCF8160E0CF20914E048D
:101AD00030914F042817390771F490914D0480918B
:101AE0004C04981741F0E0914D04F0E0E45FFB4FA7
:101AF000808190E008958FEF9FEF08950895EF9211
:101B0000FF920F931F93CF93DF93DC015C96ED90D0
:101B1000FC905D97E114F10479F481E090E0139674
:101B20009C938E93129790E080E0DF91CF911F916C
:101B30000F91FF90EF9008955196ED91FC9152977F
:101B400050968C915097982F90950FB75E962C9148
:101B50005E97122F127021FD6095F8942081112359
:101B600019F1282B2083E7012197F1F728E0462F70
:101B700050E0308160FF1AC0382B3083E701219795
:101B8000F1F7BA0175956795215089F7112381F016
:101B90008081892380830FBF5C968D919C910197F2
:101BA000F1F781E090E0C1CF2923DCCF3923E5CFE5
:101BB0009081892BEFCF20914E0430914F0428174C
:101BC000390761F480914C0420914D0490E0805CD1
:101BD0009F4F821B91098F739927089590E080E0B1
:101BE000089520914E0430914F0428173907B9F415
:101BF00090914D0480914C04981789F0E0914D0428
:101C0000F0E0E45FFB4F808120914D0430E02F5FD6
:101C10003F4F2F73332720934D0490E008958FEFAB
:101C20009FEF0895E0914E04F0914F04E817F907F3
:101C300069F4A389B4899C918589809589238C93C3
:101C400010924F0410924E0481E0089580E00895B0
:101C5000CF93DF93EC018A8D9B8D892B01F18091CD
:101C60004E0490914F048C179D07C9F0009711F016
:101C70000E94120E8E8D8E7F8E8F10924C041092C9
:101C80004D04D0934F04C0934E04EB89FC898081AE
:101C90009D89892B808381E0DF91CF91089580E039
:101CA000FBCF2091E703260F3327331F2132310565
:101CB000ECF420911B05FC0190E080E0243069F0F9
:101CC00082E00895A091E7032191AC014B535C4F52
:101CD000A40FB52FB11D2C930196861798F3809110
:101CE000E703680F6093E70380E0089581E00895BB
:101CF000ECEBF0E080818A7B808360E084E10E94ED
:101D0000470760E085E10C94470710921B0581E0CE
:101D100080931A051092F50461E084E10E94470760
:101D200061E085E10E944707E9EBF0E080818E7F6A
:101D3000808380818D7F808388E48093B80085E4F0
:101D40008093BC000895CF93DF9391E09093C403F8
:101D5000882361F0C091B800D091BA000E94780E3B
:101D60000E94850ED093BA00C093B800DF91CF9146
:101D700008958F929F92AF92BF92CF92DF92EF928F
:101D8000FF920F931F93CF93DF93D0914405D132ED
:101D900008F0D7C0182FC09143050E94CE076B01F1
:101DA0007C0180911B0581116BC082E080931B0533
:101DB00010931A058FEF8093190510921805D09390
:101DC0001705A3E2B5E0E7EFF4E080E0D81391C097
:101DD0001092F6048091F604CC0FC82BC093F60441
:101DE0008091F504813009F088C01092F5040E94BA
:101DF000CE076B017C018091F6048093BB0080913B
:101E00001D0590911E05A0911F05B0912005892BFD
:101E10008A2B8B2BA1F00E94CE0700911D051091FB
:101E20001E0520911F05309120056C197D098E0932
:101E30009F09061717072807390708F442C0809141
:101E4000BC0083FDD8CF85EC8093BC000E94CE07F8
:101E50006B017C0180911B05823009F450C0809198
:101E600019058F3F09F46FC080911905803209F47C
:101E70006CC080911905803309F469C084E026C0E4
:101E800080911D0590911E05A0911F05B091200520
:101E9000892B8A2B8B2B09F484CF0E94CE0780904C
:101EA0001D0590901E05A0901F05B09020056C198F
:101EB0007D098E099F0986169706A806B90608F0BF
:101EC00070CF80911C050E94A30E85E01092220520
:101ED0001092440510922105DF91CF911F910F912F
:101EE000FF90EF90DF90CF90BF90AF909F908F903A
:101EF00008959D9191938F5F69CF85EEA5CF8091D5
:101F00001D0590911E05A0911F05B0912005892BFC
:101F10008A2B8B2B09F49ECF0E94CE0700911D05C2
:101F200010911E0520911F05309120056C197D0927
:101F30008E099F09061717072807390708F08ACF67
:101F4000C0CF81E0C3CF80E0C1CF82E0BFCF83E0CC
:101F5000BDCF08950895E091C3038091C203E817AF
:101F600030F4F0E0EE55FC4F808190E008958FEF63
:101F70009FEF08959091C3038091C2032FEF3FEF2D
:101F8000981748F4E92FF0E0EE55FC4F208130E03F
:101F90009F5F9093C303C90108958091C2039091FC
:101FA000C303891B990B0895CF92DF92EF92FF92A2
:101FB0000F931F93CF93DF937C01CB018A01209174
:101FC0002105222389F0EB016B01C40ED51ECC152F
:101FD000DD0569F06991D701ED91FC910190F081E7
:101FE000E02DC7011995F3CF642F0E94510EC8014F
:101FF000DF91CF911F910F91FF90EF90DF90CF90E5
:102000000895CF93DF931F92CDB7DEB769832091F8
:1020100021052223F9F020914405203258F021E0D7
:1020200030E0FC013383228390E080E00F90DF9169
:10203000CF91089580912205E82FF0E0ED5DFA4FF1
:10204000998190838F5F809322058093440581E07E
:1020500090E0ECCF61E0CE0101960E94510EF7CFE7
:1020600090E080E0089508959C0161506B3058F530
:10207000E62FF0E08827E05CFF4E8F4F0C94323A59
:102080004B104E1051106310631063106310541006
:102090005A105D1060108FE796E0089582EE95E08B
:1020A000089585E495E0089529583F4FF90180810E
:1020B0009181089527583F4FF9CF25583F4FF6CFCC
:1020C00023583F4FF3CF90E080E008952F923F9246
:1020D0004F925F926F927F928F929F92AF92BF9238
:1020E000CF92DF92EF92FF920F931F93CF93DF93E4
:1020F00000D01F92CDB7DEB7DC0192962C9127FD60
:10210000FBC09C838B830E9426084B015C011A82D2
:10211000BA818B2F90E0EB81FC8122A1022E000C72
:10212000330B281739070CF4E7C08E0F9F1FDC0113
:102130001296BC91B9836B2FCF010E9434107C01A1
:10214000892B09F4C2C0E981E83040F080914E0447
:1021500090914F04E816F90609F0B7C0F981CF2E27
:10216000D12CF6013596EE0FFF1F2B813C81E20F3B
:10217000F31F00811181D701ED91FC910084F1855D
:10218000E02DC7011995181619060CF09EC0EB81B9
:10219000FC81EC0DFD1DED5AFF4FA0813601660C50
:1021A000771CA11149C080EF0E94AF0480E60E9415
:1021B000AF04898180640E94AF040115110559F0B4
:1021C000D701ED91FC910084F185E02DC7011995AF
:1021D000081719074CF0D701ED91FC910084F185A7
:1021E000E02DC70119958C01EB81FC816E0E7F1EDD
:1021F000F301E15AFF4F80819181801B910B97FD84
:1022000074C091838083101611060CF071C0D70141
:10221000ED91FC910284F385E02DC7011995D82E2C
:102220008F770E94AF048D2D881F8827881F0E94FA
:10223000AF0401501109E7CFEB81FC81E60DF71DDA
:10224000E15AFF4F2081318112161306F4F4F60192
:10225000EE0FFF1FEE0FFF1F4B815C81E40FF51F98
:1022600023A034A045A056A0B501A40142195309EA
:10227000640975091A012B014A2F50E070E060E0F3
:10228000241635064606570650F50115110509F5C1
:102290008033910524F528173907BCF420E0CC0CD5
:1022A000DD1CCC0CDD1CEB81FC81EC0DFD1D83A243
:1022B00094A2A5A2B6A2EB81FC81E60DF71DE15A1E
:1022C000FF4F9183808321116ECFBA81BF5FBA83A4
:1022D0001FCF10161106FCF680179107E4F228179D
:1022E00039070CF060CF21E0DACF118210828BCF5A
:1022F00087EF0E94AF04E9CF0F900F900F900F90DF
:10230000DF91CF911F910F91FF90EF90DF90CF90D1
:10231000BF90AF909F908F907F906F905F904F9005
:102320003F902F900895CF9382EF860F8630B8F4B8
:10233000C62F8AE00E94AF0482E0C33169F083E0D7
:10234000C23151F084E0C13139F085E0C03121F073
:1023500087E0CF3009F486E0CF910C94AF04CF91A1
:10236000089581E04A30510509F080E0089508950C
:10237000FC01E65BFF4F2081222331F01082855B58
:102380009F4F2FEFFC01208308956451623030F499
:1023900086E00E94AF0481E00C94AF0408959C0194
:1023A0008CEE860F8230B0F446305105A9F0D90189
:1023B000A65BBF4F8C91882371F0E62FF0E0E55EBD
:1023C000F74F8081863031F41C92255B3F4F8FEFB1
:1023D000F901808380E0089581E008950895CF9306
:1023E000DF93FC012281338137FD13C0EC012230E1
:1023F000310591F02330310589F0C90142970497E6
:1024000020F487E1821B0E9468088FEF9FEF9B8377
:102410008A83DF91CF91089580E0F5CF81E0F3CFFB
:1024200090E080E0623061F081E090E0633041F064
:102430008EEE860F843078F487E190E0861B910958
:102440006250643458F4019649F080E10E94AF0470
:1024500080E00C94AF048FEF9FEFF2CF0895CF93FD
:10246000DF9330E020E0623061F021E030E0633063
:1024700041F02EEE260F2430F0F427E130E0261B49
:1024800031097EEF760F7434A0F42F3F320789F0C4
:102490004031510599F0FC014281538164171506C2
:1024A00041F4EC01822F0E9468088FEF9FEF9B831D
:1024B0008A8380E004C02FEF3FEFE3CF81E0DF911C
:1024C000CF910895CF92DF92EF92FF92CF93DF9357
:1024D000EC010E9426086B01770FEE08FF08888543
:1024E0009985AA85BB85C816D906EA06FB066CF055
:1024F0004C815D816E817F81840F951FA61FB71F60
:102500008C159D05AE05BF054CF48A819B8197FF14
:102510000E943208C886D986EA86FB86DF91CF9171
:10252000FF90EF90DF90CF9008958091C507909134
:10253000C607A091C707B091C8070196A11DB11D9C
:102540008093C5079093C607A093C707B093C807A9
:102550000895CF93DF93EC010E9426086E837F835A
:102560008887998783E190E09B878A87DF91CF9165
:1025700008956A37C1F44230B0F0F9014181F0E8C2
:102580004F9FA0011124F9012081240F352F311D07
:102590002115310529F0FC013387228781E0089558
:1025A00021E030E0F8CF80E0089580E008950895BC
:1025B0000895CF92DF92EF92FF92F701D601211595
:1025C000310571F481E090E08D939C93DA018D9355
:1025D0009C9311821082FF90EF90DF90CF9008952E
:1025E0002150310980E022303105A8F780E490E0E5
:1025F0008D939C9381E090E0E9CF0F931F93CF934D
:10260000DF938C01D62FC0E0D8019C968C91C8171F
:1026100098F4EC2FF0E03196EE0FFF1FE00FF11F62
:1026200080819181DC01ED91FC910084F185E02DA8
:102630006D2F1995CF5FE8CFDF91CF911F910F914B
:1026400008950F931F93CF938C01C0E0D8019C96FF
:102650008C91C81790F4EC2FF0E03196EE0FFF1F2D
:10266000E00FF11F80819181DC01ED91FC910680EA
:10267000F781E02D1995CF5FE9CFCF911F910F9191
:102680000895CF93C0E08AEC8C0F62E0803128F08F
:102690008EEF8C0F843420F461E08C2F0E94BC04F8
:1026A000CF5FC63481F788E399E0CF910C94211372
:1026B000DF92EF92FF920F931F93CF93DF93EC0182
:1026C000D62E8A01F12CE12C8CA5F816A8F4EF2D5A
:1026D000F0E03196EE0FFF1FEC0FFD1F808191811E
:1026E000DC01ED91FC910280F381E02DA8016D2DBC
:1026F0001995E82AF394E8CF8E2DDF91CF911F91A1
:102700000F91FF90EF90DF90089508956250643428
:1027100030F481E00E94AF0481E00C94AF0408958E
:10272000CF938EEF860F8434B0F44130510599F485
:10273000E62FF0E0E55EF74F80818F3761F0C62F1E
:1027400060E08C2F0E94470761E08C2F0E94750784
:1027500081E0CF91089580E0FCCF80E008951F9341
:10276000CF93DF939EEF980F943480F4C82FD0E07E
:10277000C153D84FFE01E45BFF4F9081913031F49B
:10278000162F0E944707CE56DF4F1883DF91CF9157
:102790001F9108959F92AF92BF92CF92DF92EF92D6
:1027A000FF920F931F93CF93DF93893008F08BC074
:1027B0008F5FC82FCC0FCC0FCC0FAC2EC73410F0CE
:1027C00096E4A92ED62F88EFB82EBC0EEB2CF12C58
:1027D00010E001E08E2DEA1460F59EEF9E0D94341A
:1027E000C8F4A7014153584FFA01E45BFF4F208121
:1027F000223080F4902F9D2399249394911101C04D
:10280000912CBA016E567F4F6B01213041F4102B91
:10281000F6019082000FFFEFEF1AFF0ADBCF99233A
:10282000B9F3FB019081913099F362E00E94750742
:10283000EFCF10FF05C06D2F61708B2D0E944707F1
:1028400011FF06C06D2F627089EF8C0F0E94470741
:1028500012FF06C06D2F64708AEF8C0F0E9447072D
:1028600013FF06C06D2F68708BEF8C0F0E94470717
:1028700014FF06C06D2F60718CEF8C0F0E9447070C
:1028800015FF06C06D2F60728DEF8C0F0E944707F9
:1028900016FF06C06D2F60748EEF8C0F0E944707E5
:1028A00017FF11C06D2F60788FEF8C0FDF91CF91E4
:1028B0001F910F91FF90EF90DF90CF90BF90AF905E
:1028C0009F900C944707DF91CF911F910F91FF903C
:1028D000EF90DF90CF90BF90AF909F9008950895B4
:1028E000FC0132960B961192118A1086E817F907AF
:1028F000D1F708956250643460F480E00E94AF0420
:1029000081E00E94AF048BE00E94AF0481E00C9450
:10291000AF040895CF932EEF260F243488F5E62FC9
:10292000E695E695E695E80FF92FF11D8489962F37
:10293000977021E030E001C0220F9A95EAF7411527
:10294000510519F04B305105B9F4C62F282B248BB3
:10295000452B31F460E08C2F0E94750781E00AC09E
:1029600062E08C2F0E947507EC2FF0E0EF59F74FD3
:1029700081E08083CF91089520952823248BEECF8A
:1029800080E0F8CFDF92EF92FF920F931F93CF93E7
:10299000DF93662309F47CC08C010E5F1F4F8FE12B
:1029A000089FD02C1124D0E0E12CF80181918F01F7
:1029B000882309F468C0F1888EEF8D0F843450F4B9
:1029C000CF2DC170F0FE07C08D2F0E941E07C1E001
:1029D000892B09F4C0E08FEF8D0F843468F4F1FE89
:1029E0000BC08D2D800F880F880F880F87500E9495
:1029F0001E07892B09F0C260F2FE07C082E08D0F2E
:102A00000E941E07892B09F0C460F3FE07C083E013
:102A10008D0F0E941E07892B09F0C860F4FE07C0C5
:102A200084E08D0F0E941E07892B09F0C061F5FE1E
:102A300007C085E08D0F0E941E07892B09F0C06238
:102A4000D034A1F0F6FE07C086E08D0F0E941E076D
:102A5000892B09F0C064DF3349F0F7FE07C087E037
:102A60008D0F0E941E07892B09F0C068F80181892B
:102A7000C8238085C81739F06C2F70E08E2D0E9416
:102A80009106F801C087E394D85FF9E0EF128DCF8B
:102A9000DF91CF911F910F91FF90EF90DF900895FC
:102AA000EF92FF920F931F93CF93DF93893008F03B
:102AB00071C0E090BC08F090BD08E80EF11CF70171
:102AC0006283672B09F466C0082F1489D82FDD0FA5
:102AD000DD0FDD0F8EEF8D0F843450F4C12FC170E8
:102AE00010FF07C08D2F0E941E07C1E0892B09F43B
:102AF000C0E08FEF8D0F843448F411FF07C081E0F0
:102B00008D0F0E941E07892B09F0C26012FF07C0BB
:102B100082E08D0F0E941E07892B09F0C46013FF0D
:102B200007C083E08D0F0E941E07892B09F0C86043
:102B300014FF07C084E08D0F0E941E07892B09F047
:102B4000C06115FF07C085E08D0F0E941E07892B0D
:102B500009F0C062D034A1F016FF07C086E08D0FE7
:102B60000E941E07892B09F0C064DF3349F017FF6C
:102B700007C087E08D0F0E941E07892B09F0C068EF
:102B8000F7018489C8236C2F70E0802F0E94910682
:102B9000F701C387DF91CF911F910F91FF90EF90C5
:102BA00008958EEF860F8C3018F06C52633030F43D
:102BB00083E00E94AF0488E00C94AF040895FF9274
:102BC0000F931F93CF93DF93F9016F3609F0F2C093
:102BD000423008F4EFC0F080C181D0E0423091F083
:102BE000828120E8829FC0011124C82BD92B433059
:102BF00049F0838190E090E4899F902D88271124EB
:102C0000C82BD92B0F2D10E0F801E55EF74F80811E
:102C10008250823008F035C061E08F2D0E94750728
:102C2000209729F460E08F2D0E9447072AC0CF3FEC
:102C3000D10511F461E0F7CFF801E051F84FE491CC
:102C4000E150E23108F0B1C0F0E08827E55DF94ECF
:102C50008F4F0C94323A3D164316481652165C16A6
:102C6000D51666166E16761680168A169416A31654
:102C7000AD16D516B716C116CB1684B5806884BDBF
:102C8000C7BD81E098C084B5806284BDC8BDF9CF5E
:102C900080918000806880938000D0938900C093E9
:102CA0008800EFCF80918000806280938000D09375
:102CB0008B00C0938A00E5CF80918000886080936C
:102CC0008000D0938D00C0938C00DBCF8091B0004A
:102CD00080688093B000C093B300D3CF8091B000E0
:102CE00080628093B000C093B400CBCF80919000FD
:102CF000806880939000D0939900C0939800C1CFD2
:102D000080919000806280939000D0939B00C0934C
:102D10009A00B7CF80919000886080939000D09304
:102D20009D00C0939C00ADCF8091A00080688093EF
:102D3000A0008091A0008F7B8093A000D093A90079
:102D4000C093A8009ECF8091A00080628093A000D5
:102D5000D093AB00C093AA0094CF8091A00088606C
:102D60008093A000D093AD00C093AC008ACF809137
:102D70002001806880932001D0932901C09328010D
:102D800080CF80912001806280932001D0932B011D
:102D9000C0932A0176CF8091200188608093200122
:102DA000D0932D01C0932C016CCFC038D1050CF00D
:102DB00041CF38CF80E0DF91CF911F910F91FF90ED
:102DC00008950895EF92FF920F931F93CF93662378
:102DD00019F17C01CAEC10E000E0C031C0F4F80148
:102DE000E55EF74F8081823091F4F7018281938113
:102DF0000C2E02C0959587950A94E2F780FF07C0D4
:102E0000802F0E94B107BC018C2F0E9455060F5FD6
:102E10001F4FCF5FC03109F7CF911F910F91FF90E6
:102E2000EF900895FC011382128208956653603179
:102E300030F482E00E94AF048AE00C94AF0408955D
:102E4000CF93DC016031B0F412968D919C91139771
:102E5000E1E0F0E0062E02C0EE0FFF1F0A94E2F759
:102E600041110AC0E095F095E823F9231396FC93ED
:102E7000EE931297CF910895E82BF92B1396FC93BC
:102E8000EE9312978091A7088111F4CF822FC62F5D
:102E90000E94B107BC018C2FCF910C945506CF93A3
:102EA000DF93FC016936B9F480EF0E94AF048AE633
:102EB0000E94AF04CAEC8C2FC03108F08FE70E944B
:102EC000AF04CF5FC031B9F787EF0E94AF0481E054
:102ED000DF91CF910895643601F54230F0F0D901C9
:102EE0006C91A62FB0E050E040E0942FEA01E69705
:102EF000AC17BD0731F04F5F5F4F46345105A9F75E
:102F000090E041E0D90111968C91813009F040E0C8
:102F1000292FCF010E942017DACF80E0D9CFCF939D
:102F2000C62F6AEC6C0F603188F42C2F42305105AB
:102F300051F441E00E94201760E08C2F0E94750739
:102F400081E0CF91089540E00E94201780E0F9CF02
:102F5000CF93DF93E091CB07F091CC07A82FB0E09F
:102F600050E040E0242FEA01E697AC17BD0731F0AE
:102F70004F5F5F4F46345105A9F720E041E06130D3
:102F8000710509F040E0682FCF01DF91CF910C94DB
:102F900020170895089508950895089562506033A4
:102FA00030F484E00E94AF048EE00C94AF040895E6
:102FB00081E008956250643430F48FE00E94AF04E1
:102FC00080E40C94AF0408956253643030F48CE0D4
:102FD0000E94AF0481E00C94AF04089580E008954E
:102FE0000895FC0101900020E9F73197AF01481BDB
:102FF000590BBC018CE197E00C94DA080F931F93F6
:10300000CF93DF930E94D4048091CF079091D00793
:10301000DC01ED91FC910190F081E02D69E71995BB
:103020008091CF079091D007DC01ED91FC91019048
:10303000F081E02D6091D30719958091CF07909191
:10304000D007DC01ED91FC910190F081E02D6091C1
:10305000D4071995A091D107B091D207ED0109903D
:103060000020E9F72197CA1BDB0B10E000E0C01736
:10307000D10779F0E091D107F091D207E00FF11F6D
:103080008081082E000C990B0E943D050F5F1F4F99
:10309000EECFDF91CF911F910F910C94E004EF924E
:1030A000FF920F931F93CF93DF938C010E94E4371D
:1030B0007C018091A808811107C0C8010E94F40911
:1030C0008FE693E00E94F1170E94D4048091CF070D
:1030D0009091D007DC01ED91FC910190F081E02D01
:1030E00061E71995D0E0C0E0CE15DF054CF4F8019A
:1030F000EC0FFD1F849190E00E943D052196F4CFD6
:10310000DF91CF911F910F91FF90EF900C94E0040D
:103110008F929F92AF92BF92EF92FF920F931F9365
:10312000CF93DF936D3709F0B8C0423060F481E08F
:10313000DF91CF911F910F91FF90EF90BF90AF90D3
:103140009F908F900895E901142F7C01888181114F
:103150001EC08981F701228133818217130621F075
:1031600037FD15C08F3799F42230310579F12330BE
:10317000310571F1C9014297049720F487E1821B60
:103180000E9468088FEF9FEFF701938382831530C9
:1031900070F228811981123009F481C0133009F4CA
:1031A0007EC08EEE810F8430A8F487E190E0811B11
:1031B0009109213009F0BBCF163418F4019609F0BB
:1031C00071C08CEF96E00E944F18B1CF80E0D8CF4D
:1031D00081E0D6CF8FEF9FEFECCF133091F485E9EC
:1031E00092E1909304028093030280916A00837FAE
:1031F000220F331F220F331F282B20936A00ED9AD2
:1032000090C08EEE810F843008F08BC087E1811B67
:10321000E82FF0E0EE0FFF1FEF5FFD4F45E952E1B1
:10322000518340838430C1F0853019F1833041F0FF
:10323000809169008C7F282B20936900E89A71C0E7
:1032400080916900837F220F331F220F331F282BA9
:1032500020936900E99A65C0809169008F7C44E001
:10326000220F331F4A95E1F7282B20936900EA9A31
:1032700058C0809169008F7396E0220F331F9A9592
:10328000E1F7282B20936900EB9A4BC08C179D0720
:1032900009F452C086ED96E096CF80E049CF213008
:1032A00009F045CF0A818C8120E8829FC00111245A
:1032B0002B81822B4C01092E000CAA08BB08892BFC
:1032C00059F00E942608F7016087718782879387EB
:1032D00084829582A682B782F70182819381C12F71
:1032E000D0E08F3F980791F6025030E020E00430A4
:1032F00040F4E02FF0E0E95EFD4F2081022E000C4B
:10330000330B123009F069CF85E992E19093020204
:103310008093010280916A008C7F282B20936A00A1
:10332000EC9AF701D383C28360E0812F0E94750776
:1033300060E1812F0E94BC04CE010E943208F7CECA
:103340002F923F924F925F926F927F928F929F92B5
:10335000AF92BF92CF92DF92EF92FF920F931F93A3
:10336000CF93DF9300D000D0CDB7DEB75C01062F3E
:10337000942E79016B3609F457C06D3671F010E068
:10338000663609F00AC1EAE0E41708F47CC08AEA6C
:1033900096E00E944F1880E02EC04423E1F3D9014B
:1033A0000C910634C0F780EF0E94AF048EE60E94B5
:1033B000AF04802F0E94AF0410E00153184FF801B2
:1033C000E45BFF4F80810E94AF04F801EE56FF4F8F
:1033D0001081812F8F770E94AF04812F90E017FF1B
:1033E00006C0880F892F881F990B0E94AF0487EFB2
:1033F0000E94AF0481E026960FB6F894DEBF0FBEA0
:10340000CDBFDF91CF911F910F91FF90EF90DF9093
:10341000CF90BF90AF909F908F907F906F905F9074
:103420004F903F902F90089580EF0E94AF048CE65C
:103430000E94AF040BE118E0F12CF80181918F019B
:103440008F37C9F0E12CD5019C968C91E81698F441
:10345000EE2DF0E03196EE0FFF1FEA0DFB1D80818F
:103460009181DC01ED91FC910190F081E02D6F2DB7
:103470001995E394E8CF8FE70E94AF04F394B6E484
:10348000FB12DBCFB4CF11E0D9018C91811101C0C7
:1034900010E0F701818190E09E838D8384E090E0CD
:1034A0009C838B8383814480512C712C612C47E059
:1034B000440C551C661C771C4A95D1F7482A4201DA
:1034C0003580C70106960E94F9047A836983D50185
:1034D000ED91FC910684F785E02D9E012F5F3F4F13
:1034E0006901CE0103967C01032D9201AE014B5F71
:1034F0005F4F612FC5011995811127C0212CD5017E
:103500009C968C91281608F5E22DF0E03196EE0F8E
:10351000FF1FEA0DFB1D80819181DC01ED91FC9183
:103520000684F785E02D9E012F5F3F4F6901DE0184
:1035300013967D01032D9401AE014B5F5F4F612F08
:103540001995811102C02394DACF80EF0E94AF0455
:1035500086E60E94AF04812F0E94AF048D810E94F5
:10356000AF048B810E94AF04842D8F770E94AF043B
:10357000C201880F892F881F990B91958F770E9420
:10358000AF04832D0E94AF0469817A81072E000C5D
:10359000880B990B0E9464052ACFF50184A51817A2
:1035A00008F0F9CEE12FF0E03196EE0FFF1FEA0DA3
:1035B000FB1D80819181DC01ED91FC910480F581FE
:1035C000E02D9701492D602F1995811114CF1F5FB0
:1035D000E4CFCF93DF93EB01A091C907B091CA0765
:1035E000ED91FC9111970280F381E02DAB01682FE2
:1035F000CD011995811109C0CF37D10531F081E78F
:1036000096E0DF91CF910C944F18DF91CF91089500
:103610008F929F92AF92BF92CF92DF92EF92FF92E2
:10362000CF93DF93613581F4F90182E496E0423073
:1036300048F0D1818081813009F0D1C2463030F428
:1036400083E096E00E944F1880E018C0C9010296FE
:103650000E94F9046B017C0180910002D817C9F027
:103660008F3F09F483C00E94D40480E00E94AF041D
:1036700080E00E94AF040E94E00481E0DF91CF91DE
:10368000FF90EF90DF90CF90BF90AF909F908F9082
:103690000895E1E9F7E0C491C7FDE5CF61E08D2F22
:1036A0000E947507CC2319F0C23009F0E3C1EE2463
:1036B000FF2460E072E18AE790E0A70196010E9492
:1036C0001A3949015A01BA01A90141505109610948
:1036D00071094F3F51056105710509F00CF4AFC147
:1036E00060E472E48FE090E0A70196010E941A392D
:1036F000BA01A9014150510961097109C23009F0AB
:1037000024C182E04F3F51056105710509F00CF4B9
:1037100061C160E970ED83E090E0A70196010E942D
:103720001A39BA01A901415051096109710983E0AF
:103730004F3F51056105710509F00CF44BC168E478
:1037400078EE81E090E0A70196010E941A39BA0153
:10375000A90141505109610971094F3F51056105A6
:10376000710511F00CF047C184E034C1D093000220
:10377000E1E9F7E0C4918C2FCF3F09F474CFC23058
:1037800009F477C060F4CC23A1F1C13009F44EC034
:1037900087FD69CF61E08D2F0E94750785CFC4300A
:1037A00009F4B0C008F48BC0C53091F71092200125
:1037B00010922101809121018860809321018091E4
:1037C00021018160809321018D2F90E0FC01E65959
:1037D000F74FE491F0E0EE0FFF1FE05BF74F25910C
:1037E0003491FC01E055F74FE491E0938903C5E083
:1037F00055CF14BC15BC84B5826084BD85B581608D
:1038000085BD8D2F90E0FC01E659F74FE491F0E083
:10381000EE0FFF1FE05BF74F25913491FC01E0555F
:10382000F74FE491E0938D03C0E038CF1092800011
:103830001092810080918100886080938100809146
:1038400081008160809381008D2F90E0FC01E6591A
:10385000F74FE491F0E0EE0FFF1FE05BF74F25918B
:103860003491FC01E055F74FE491E0938C03C1E003
:1038700015CF1092B0001092B1008091B00082601C
:103880008093B0008091B10081608093B1008D2F52
:1038900090E0FC01E659F74FE491F0E0EE0FFF1FD6
:1038A000E05BF74F259134913093E6042093E504D3
:1038B000FC01E055F74FE491E093E704EFCE10925E
:1038C0009000109291008091910088608093910007
:1038D000809191008160809391008D2F90E0FC0198
:1038E000E659F74FE491F0E0EE0FFF1FE05BF74F72
:1038F00025913491FC01E055F74FE491E0938B035F
:10390000C3E0CCCE1092A0001092A1008091A10043
:1039100088608093A1008091A10081608093A100C4
:103920008D2F90E0FC01E659F74FE491F0E0EE0FA7
:10393000FF1FE05BF74F25913491FC01E055F74FF5
:10394000E491E0938A03C4E0A9CE4F3F510561059D
:10395000710509F00CF48CC068E478EE81E090E029
:10396000A70196010E941A39BA01A90141505109D3
:1039700061097109CC2309F44DC14F3F510561051F
:10398000710509F00CF4F0CE62E17AE780E090E096
:10399000A70196010E941A39BA01A90141505109A3
:1039A00061097109CC2309F41EC186E04F3F51051E
:1039B0006105710579F070F0B501A4018AE0759593
:1039C0006795579547958A95D1F7415051096109F7
:1039D000710987E09091B100987F892B8093B100A5
:1039E000C23009F4E9C00CF0E0C0CC2379F1C13059
:1039F00009F039CE6DC064E274EF80E090E0A70179
:103A000096010E941A39BA01A90141505109610970
:103A1000710985E04F3F510561057105D9F2D0F27A
:103A200062E17AE780E090E0A70196010E941A39EE
:103A3000BA01A9014150510961097109B6CF81E06C
:103A4000C111C8CF95B5987F892B85BD47BD8FEF34
:103A50009FEFDC0180939E0390939F03A093A003AC
:103A6000B093A10380916E00826080936E00FBCDC5
:103A700082E0E6CFEE24FF2460E072E18AE790E086
:103A8000A70196010E941A39BA01A90141505109B2
:103A90006109710991E04115510581E068077105DF
:103AA0007CF068E478EE81E090E0A70196010E9446
:103AB0001A39BA01A901415051096109710993E00C
:103AC000C130D9F480918100887F892B8093810057
:103AD00050938900409388008FEF9FEFDC01809323
:103AE0009A0390939B03A0939C03B0939D038091B2
:103AF0006F00826080936F00B6CDC330D9F480919F
:103B00009100887F892B8093910050939900409376
:103B100098008FEF9FEFDC018093960390939703BB
:103B2000A0939803B0939903809171008260809371
:103B3000710099CDC430D9F48091A100887F892B80
:103B40008093A1005093A9004093A8008FEF9FEFAE
:103B5000DC018093920390939303A0939403B0931A
:103B60009503809172008260809372007CCDC53095
:103B700009F036CF80912101887F892B8093210124
:103B800050932901409328018FEF9FEFDC01809330
:103B90008E0390938F03A0939003B0939103809131
:103BA00073008260809373005ECDC43059F20CF4D0
:103BB000ACCFC53029F357CD4093B3008FEF9FEFC3
:103BC000DC018093E8049093E904A093EA04B093A5
:103BD000EB048091700082608093700044CD8D2F43
:103BE0000E94950840CD84E04F3F51056105710565
:103BF00009F008F427CFB501A4019AE075956795FF
:103C0000579547959A95D1F7415051096109710926
:103C100085E018CF83E04F3F51056105710509F03C
:103C20000CF410CFB1CEFC0112AE9FB7F894809186
:103C30008803882319F0815080938803809188033A
:103C4000811105C08CB58F7B8CBD109287039FBFFF
:103C50008FE995E00C944F18FC0122AD21110C94D2
:103C6000131E0895DC018EEC860F843090F44C30E6
:103C7000510589F0DA968C91DA97882359F0E62F6E
:103C8000F0E0E55EF74F80818C3019F4CD010E94A1
:103C9000131E80E0089581E008954F925F926F9225
:103CA0007F928F929F92AF92BF92CF92DF92EF92CC
:103CB0000F931F93CF93DF936C01D62F5A01122FCE
:103CC0004F3F540709F492C081E08093210560932F
:103CD00043051092220510924405642F89EB97E06A
:103CE0000E940110802F0E94B90EF601E45BFF4F85
:103CF000808191818230910538F0880F991F880F5B
:103D0000991F05970197F1F70E94CE072B013C01FF
:103D100080911B0581116CC0C12F113208F0C0E2E7
:103D200081E080931B0580931A059FEF90931905FE
:103D3000109218059C0F909317058093F6049091AC
:103D4000F6048D2F880F892B8093F6048091F5045B
:103D5000813009F0A1C01092F5040E94CE072B011A
:103D60003C018091F6048093BB0080911D059091E9
:103D70001E05A0911F05B0912005892B8A2B8B2B46
:103D8000A1F00E94CE0720911D0530911E054091A3
:103D90001F05509120056419750986099709261792
:103DA00037074807590708F444C08091BC0083FDD9
:103DB000D8CF85EC8093BC000E94CE072B013C013C
:103DC00080911B05813009F469C0809118058C171A
:103DD00010F4C0911805A7EFB4E0E2EAF3E080E048
:103DE0008C1761F19D9191938F5FFACFA12C8CCFAD
:103DF00080911D0590911E05A0911F05B091200591
:103E0000892B8A2B8B2B09F483CF0E94CE0720911C
:103E10001D0530911E0540911F0550912005641924
:103E2000750986099709261737074807590708F0C3
:103E30006FCF80911C050E94A30EC0E01092C303B7
:103E4000C093C203212F30E08C2F90E02817390750
:103E50000CF046C085E297E00E944F18F601A2A63A
:103E60003601FBE26F0E711C912C812CA12EB12C1E
:103E70008A149B04DCF59091C2038091C3039817C8
:103E8000A9F189EB97E00E94BA0F9FEF891A990A6E
:103E9000F30181933F01ECCF85EE8CCF80911D051E
:103EA00090911E05A0911F05B0912005892B8A2BAA
:103EB0008B2B09F485CF0E94CE0720911D053091F0
:103EC0001E0540911F05509120056419750986094A
:103ED0009709261737074807590708F071CFA9CF68
:103EE000821793070CF0BACF1C2FB8CF0E94D404CE
:103EF00087E70E94AF048D2F0E94AF048E2D0E9491
:103F0000AF04E601AA96D12CC12C899190E00E94C1
:103F10003D05FFEFCF1ADF0AAC14BD04B4F7DF9103
:103F2000CF911F910F91EF90DF90CF90BF90AF9006
:103F30009F908F907F906F905F904F900C94E004D3
:103F4000CF92DF92EF92FF920F931F93CF93DF9365
:103F50006C012BE4C20ED11CF601208127FD28C084
:103F6000EC0110E085E0F82E812F90E0F601208131
:103F7000022E000C330B28173907D4F0F89EF001FD
:103F8000F99EF00D1124EC0FFD1F0196F89ED00153
:103F9000F99EB00D1124AC0FBD1F43815481E12C5B
:103FA00006812C916281CE010E944D1E1F5FDCCFE5
:103FB000DF91CF911F910F91FF90EF90DF90CF9005
:103FC0000895CF92DF92EF92FF920F931F93CF93BA
:103FD000DF93E42EE901663729F0683709F4FBC066
:103FE00010E01CC0FC01E65BFF4F10811123B1F013
:103FF000398135FF05C083E597E00E944F180EC058
:10400000688141E036FB002700F90427232F28713F
:10401000283009F43EC060F42223C9F0812FDF91DB
:10402000CF911F910F91FF90EF90DF90CF90089567
:10403000203109F44BC0283189F7EC01C55BDF4F13
:10404000388113160CF481C08FEF8883E7CF40933B
:10405000210560934305109222051092440502E069
:104060000E1578F4FE01E00FF11D6181679566275A
:1040700067958081680F89EB97E00E9401100E5FC1
:10408000EFCF81E00E94B90E83E191E00197F1F753
:10409000C5CF7A812B8146E0E41211C0A0E82A9FA7
:1040A000A0011124470F511D2D8127952227279507
:1040B0007C81270F3770E32E0E944D1EAFCF2795CE
:1040C00022272795270F4FEF5FEFF4CFFC01E55B29
:1040D000FF4F408147301CF082E497E08ECFAA81E9
:1040E0003B81B6E0EB122AC050E8359F90011124C5
:1040F000A20FB32FB11D3D813795332737952C8102
:10410000320F4F5F4083042E000C550B25E0249F97
:10411000F001259FF00D1124E80FF91F6283B4838D
:10412000A3834F5F5F4F249FB001259F700D112423
:10413000860F971FDC013C93068370CF379533279A
:1041400037953A0FAFEFBFEFDCCF20E0E32E032E21
:10415000000CFF0875E0422F50E0E416F50664F00D
:10416000749FF001759FF00D1124E80FF91F428133
:10417000641719F02F5FEFCF20E045E0622F70E069
:10418000E616F7062CF1283008F5FB0131964E9F14
:10419000D0014F9FB00D1124A80FB91F12965C914A
:1041A0001297469FF001479FF00D11246F01C80E32
:1041B000D91EF601528313966D917C9114977483E6
:1041C00063835285558316965C9156832F5FD6CFB5
:1041D0003150388323CF2981B0E82B9FA0011124CF
:1041E0002881240F352F311D2115310529F0FC01BF
:1041F000E45BFF4F318320838C01065B1F4FF80186
:104200008081811133C0D0E0C0E08C2F8451823096
:1042100070F4FE01E55EF74F80818F3739F166E07B
:104220008C2F0E94BC0466E08C2F0E94750721969B
:10423000C634D10551F781E0D8018C930E94780EE5
:104240001092C3031092C2031092220510924405EB
:104250000E94850E89EA9FE09093E6038093E50330
:104260008AEA9FE09093EA038093E903F8011081C2
:10427000D5CECF9343305105C1F48EEF860F8C30ED
:1042800020F084ED860F833080F4C62F61E08C2F00
:104290000E94750761E08C2F0E94750760E08C2FEB
:1042A0000E94470781E0CF91089580E0FCCF0C94F5
:1042B000D63A1F93CF93DF93EC0118E0612FCE0124
:1042C0000E943410009711F00E94D63A1F5F1C30F4
:1042D000A9F78FEF8AA3FE013A96CE018396DE01FD
:1042E000AD5ABF4FAE014E5D5F4F11921192EC017E
:1042F0001992199219921992CE011D929F012D5A6D
:104300003F4FE90119821882E417F50771F7DF9131
:10431000CF911F9108950C94D63A0C94D63A0C94F0
:10432000D63A0C94D63A0C94D63A0C94D63A0C94CD
:10433000D63A0C94D63A0C94D63A0C94D63A0C94BD
:10434000D63A0C94D63A0C94D63ACF93DF93C62F34
:10435000D0E0CC0FDD1FC80FD91FBA91AA911097DA
:10436000A1F0EC912E2F30E0F901EE0FFF1FE20FCC
:10437000F31FEB5AFB4F908196FF02C09F7B908307
:10438000CD010E94D63A19821882DF91CF9108950B
:104390000F931F93CF938C01C0E08EEF8C0F80336F
:1043A00020F46C2FC8010E94A521CF5FC634A9F765
:1043B000CF911F910F910895CF93DF93EC018E81E0
:1043C0009F81009721F00E94D63A1F821E82DF91C2
:1043D000CF910895CF93DF93FC012281222341F0F6
:1043E000EC01858196810E94D63A1E821D821A8236
:1043F000DF91CF910895CF93DF93EC016250643445
:1044000070F481E04F30510559F08A81882341F0E2
:104410008D819E810E94D63A1E821D821A8280E082
:10442000DF91CF9108954F925F926F927F928F921A
:104430009F92AF92BF92CF92DF92EF92FF920F9333
:104440001F93CF93DF93CDB7DEB7A1970FB6F89444
:10445000DEBF0FBECDBF7C015A016B010E94E43765
:104460004C018091A808811126C0C7010E94F4095F
:1044700019A29501A6018E010F5D1F4F8AE0482EFB
:10448000512C612C712CCA01B901A30192010E9427
:104490003939605DD8016E938D01211531054105D3
:1044A000510589F7109719F0CD010E94F1178FE699
:1044B00093E00E94F1170E94D4048091CF0790915D
:1044C000D007DC01ED91FC910190F081E02D61E7D6
:1044D000199510E000E00815190554F4F701E00FF4
:1044E000F11F849190E00E943D050F5F1F4FF3CFB5
:1044F00020E1FE0131964F01AF01B501C6010E94D6
:10450000ED37F40101900020E9F731977F01E818B9
:10451000F908B7016F5F7F4F90E080E00E945F3B3A
:104520008C010097C9F0DC011C92B4010E94503C40
:10453000D12CC12CCE14DF0491F080E001151105BF
:1045400021F0F801EC0DFD1D808190E00E943D05F9
:10455000BFEFCB1ADB0AEECFF12CE12CE9CF0E94A2
:10456000E00401151105C9F0C801A1960FB6F89431
:10457000DEBF0FBECDBFDF91CF911F910F91FF9096
:10458000EF90DF90CF90BF90AF909F908F907F90F3
:104590006F905F904F900C94D63AA1960FB6F89416
:1045A000DEBF0FBECDBFDF91CF911F910F91FF9066
:1045B000EF90DF90CF90BF90AF909F908F907F90C3
:1045C0006F905F904F9008952F923F924F925F921D
:1045D0006F927F928F929F92AF92BF92CF92DF9213
:1045E000EF92FF920F931F93CF93DF93CDB7DEB778
:1045F000C754D1090FB6F894DEBF0FBECDBF4C0132
:104600006A01DC01DA968C9181111EC08EE895E07A
:104610000E944F18C95BDF4F0FB6F894DEBF0FBE84
:10462000CDBFDF91CF911F910F91FF90EF90DF9061
:10463000CF90BF90AF909F908F907F906F905F9042
:104640004F903F902F9008952223D9F06430D8F0F6
:10465000F6014081F401B12CA12C8281481709F4A4
:1046600027C13FEFA31AB30A379688E0A816B10412
:10467000A1F750E070E060E084E495E00E9413222E
:10468000C9CF663028F78FE695E0C2CF87E08A9DD4
:10469000F0018B9DF00D1124E80DF91D958191110C
:1046A00016C0F6019E012F5F3F4FD90194E07D01B6
:1046B000E21AF30A3296961708F008C183818795AB
:1046C000882787954281840F8D939E5FF0CF645039
:1046D000770B869F7001879FF00C112463E0F5949F
:1046E000E7946A95E1F7B1E4EB16F1041CF089E177
:1046F00095E08ECF1601E4E02E0E311C9E012F5F57
:104700003F4F2901F90130E020E057E0652E712C80
:10471000CF01841995098E159F050CF0D7C0C901EA
:10472000B3010E941E3AD101A60FB71F11966C91DA
:104730001197A301481B590B01C0660F4A95EAF770
:104740004C9150E002C0559547958A95E2F7642B4D
:104750006193285F3F4FDCCF8093860311C1F7013F
:104760003197E80FF91F0DB407FEFDCF8EB580839A
:1047700080918703882359F09FB7F894209187038D
:1047800080918603213009F05BC08DBB9FBFF6018D
:104790008281882361F087E08A9DF0018B9DF00D76
:1047A0001124E80DF91D61E084810E944707013062
:1047B000110509F02FCF0E94D40488E60E94AF04AF
:1047C00085E00E94AF04D6018C910E94AF04F601EF
:1047D00081810E94AF048E2D0E94AF0427E02A9DA4
:1047E000C0012B9D900D1124880E991ED4011596A1
:1047F0008C91FE0131965F018F01882309F44BC033
:104800004F0110E000E0512C48E0642E712CC401EF
:104810008A199B098E159F05B4F5D4018D914D0120
:10482000C82ED12C0115110569F48F770E94AF04B1
:10483000CC0CCD2CCC1CDD085C2C01E010E0E7CFCB
:104840008FBFA5CFC601002E01C0880F0A94EAF7DA
:104850008F7785290E94AF040630110541F4C60107
:10486000959587950E94AF0410E000E0D0CF0F5FD0
:104870001F4FC301801B910B02C0D594C7948A952A
:10488000E2F75C2CC4CF012B19F0852D0E94AF04F8
:104890000E94E004BFCEC8018A199B098E159F05AE
:1048A000BCF7F80181918F0190E00E943D05F3CFA4
:1048B000222309F4EBCED6011396EC90F12CA7013C
:1048C00070E060E0CE0101960E94493C0230110583
:1048D00069F580EF22968FAF229788E623968FAFF7
:1048E000239785E024968FAF2497D6018C91259647
:1048F0008FAF259711968C9126968FAF2697279686
:104900001FAE279787EF28968FAF28978091CF0704
:104910009091D007DC01ED91FC910280F381E02DB4
:1049200047E050E0BE016F5B7F4F199587E08A9D9D
:10493000F0018B9DF00D1124E80DF91D84818F3F4E
:1049400019F060E00E94470787E08A9DF0018B9D87
:10495000F00D11243696E80DF91D2081918180918A
:104960008703882369F08FB7F8943091870331303B
:1049700009F0F2CE3DB3309386033DB33DBB8FBF0C
:104980002CBD9DBDE114F10409F4F2CE89818EBDE8
:10499000FE0131969701CF012150310909F4DFCE94
:1049A00051810DB407FEFDCF4EB55EBD4193F4CFEE
:1049B000CF92DF92EF92FF920F931F93CF93DF93EB
:1049C000CDB7DEB7C054D1090FB6F894DEBF0FBE25
:1049D000CDBF6096EEACFFAC6097C7010E94E43794
:1049E0008C0180970CF056C00E94D4048091CF07B0
:1049F0009091D007DC01ED91FC910190F081E02DC8
:104A000061E71995DE01919690E080E0AD01801795
:104A100091073CF4F701E80FF91FE491ED9301963B
:104A2000F6CFFA01E00FF11F10828E010F5F1F4FCA
:104A300080E2F80111928A95E9F79E01205B3F4FD1
:104A400060E270E0C8010E94573C8091A808811183
:104A500007C0C8010E94F1178FE693E00E94F1178A
:104A6000F80101900020E9F731977F01E01AF10A7F
:104A70006801C601801B910B8E159F054CF4D60171
:104A80008D916D01082E000C990B0E943D05F1CF10
:104A90000E94E004C05CDF4F0FB6F894DEBF0FBE8B
:104AA000CDBFDF91CF911F910F91FF90EF90DF90DD
:104AB000CF900895CF93DF93C82FD62F9A0180917E
:104AC000C9079091CA07DC01ED91FC910480F58142
:104AD000E02D462F6C2F1995811116C01F92DF9380
:104AE0001F92CF9382E896E09F938F938FEC97E08D
:104AF0009F938F930E94D8248DB79EB708960FB6C8
:104B0000F8949EBF0FBE8DBFDF91CF9108956F9235
:104B10007F928F929F92AF92BF92CF92DF92EF924D
:104B2000FF920F931F93CF93DF93683649F4890167
:104B3000F42EEC01411106C080E993E00E944F1869
:104B400080E028C0A9014F5F5F4FFA94F90190817E
:104B5000983008F07AC1E92FF0E08827ED54FA4D3B
:104B60008F4F0C94323ABB25382622271B27132758
:104B700025270F271F278AAD81110CC0F1E0FF12F6
:104B800004C0F90181818823A1F08DED93E00E949A
:104B90004F1881E0DF91CF911F910F91FF90EF901F
:104BA000DF90CF90BF90AF909F908F907F906F904D
:104BB000089580914D088F3781F16CE082E30E9467
:104BC000BC0460E082E30E94750780914E088F3735
:104BD00021F16CE083E30E94BC0461E083E30E9466
:104BE000750780914F088F37C1F06CE084E30E9415
:104BF000BC0461E084E30E947507FAAECFB7F89475
:104C000080918803882361F0809188038F5F80936F
:104C10008803CFBF81ED93E0BACF89EB93E0B7CFA4
:104C2000EFE9F8E08491E5EEF8E09491E82FF0E008
:104C3000EE0FFF1FEA52F84FA591B491EC91E923D2
:104C400021F461E085E30E94470761E085E30E946B
:104C500075078CB580618CBD8CB580648CBD61E0BE
:104C600084E30E94750761E083E30E947507CCCF5F
:104C7000F9E086ED94E0FF1508F089CFF901718025
:104C8000FE01DE01EE24EA94FE2C90E080E0129614
:104C90002C911297271101C07C010196179688303C
:104CA0009105A9F78FEFE816F80691F490E080E0FF
:104CB0002085211101C07C0101963796883091052D
:104CC000B9F79FEFE916F90619F484EA94E05FCF8B
:104CD000F8018085877F19F086E794E058CF872D0B
:104CE000837049F0472D50E070E060E088E494E084
:104CF0000E9413224ECF87E08E9D60018F9DD00CC5
:104D00001124CC0EDD1EF6017282F8018281F82F8B
:104D1000F1706F2E83FB882780F9F6018583C80127
:104D200003960E94F9044B015C01F8018185F601AC
:104D30008383F8018285F601848381E08087811472
:104D40009104A104B10439F420E4822E2BE4922EC4
:104D50002CE4A22EB12C40E052E16AE770E080E042
:104D600084169506A606B70640F47695679557957E
:104D700047958F5F8630A1F787E091E0982720E57F
:104D8000611001C020E737E03E9D80013F9D100D7E
:104D90001124F8013696EC0FFD1F9695922B908307
:104DA0008095817081830C0F1D1FF801838180FD28
:104DB0002CC08FEF8483BF92AF929F928F9227E097
:104DC0002E9DC0012F9D900D1124C80FD91F8C81DD
:104DD000282F082E000C330B3F938F93FF92EF92F6
:104DE0001F927F9281E094E09F938F938FEC97E0E6
:104DF0009F938F930E94D8248DB79EB70E960FB6BF
:104E0000F8949EBF0FBE8DBFC4CE61E084810E9426
:104E1000BC0461E0F80184810E947507CCCFCE010B
:104E20000E94131EB6CE01E010E021E06F2DCE01EE
:104E30000E94E422AECE10E000E020E0F7CF02E0D6
:104E400010E0FBCF01E010E0F8CF492F50E070E018
:104E500060E083E095E04CCF85ED8093BC008091CD
:104E60001D0590911E05A0911F05B0912005079684
:104E7000A11DB11D23E0B695A795979587952A9515
:104E8000D1F72091BC0024FD03C010921B050895AA
:104E900040911D0550911E0560911F0570912005E0
:104EA000452B462B472B69F30097A105B10541F02F
:104EB0002AE22A95F1F700C00197A109B109E1CFD3
:104EC00080911C050C94A30E9F92AF92BF92CF923B
:104ED000DF92EF92FF920F931F93CF93DF93603592
:104EE00041F4F901EC01433030F485ED95E00E9486
:104EF0004F1880E063C09280E180F0808E819F81B6
:104F0000AF2CB12CCE2CD12C009751F02A813B81B3
:104F10002A153B0529F42C813D812C153D0539F1DD
:104F20000E94D63A8BE090E00E943A3A8C01FC0154
:104F3000F082E18281E0EF1080E0F801828361E09D
:104F40008F2D0E94750760E0F80181810E9475072E
:104F500080E29EE4A0E0B0E0F80187839087A1871B
:104F6000B2871F830E83BB82AA82DD82CC8291101E
:104F700031C08E819F810E94B90B68E370E00E946E
:104F80000A3A84E6869FE001879FD00D11240E9493
:104F9000D40480E50E94AF048F2D0E94AF048E2DB3
:104FA0000E94AF04892D0E94AF04BE01DD0F880B63
:104FB000990B0E9464050E94E00481E0DF91CF918B
:104FC0001F910F91FF90EF90DF90CF90BF90AF9027
:104FD0009F900895F1E09F128CCF8E819F810E9457
:104FE000B90B6EE870E0CBCF7F928F929F92AF9219
:104FF000BF92CF92DF92EF92FF920F931F93CF93C6
:10500000DF93EC01D901603609F0D7C08C91182FDD
:105010001F701C3008F0D1C0807F803309F4DFC1DD
:105020005901042F813338F48031A1F1803209F421
:10503000B8C181E0C3C0803609F42FC2803709F4BB
:105040003BC28035B1F7612FCE010E943410EC01D4
:10505000009779F3183008F01AC2E881F9810680C8
:10506000F781E02D1995EA89FB8980818F7E808305
:10507000EA89FB898081877F8083EA89FB89808137
:105080008F778083EA89FB8980818F7D80838A8DF9
:10509000898FCFCFD9011296CC901297D12CF12CB9
:1050A000E12C87E0CC0CDD1CEE1CFF1C8A95D1F7AF
:1050B00013968C9190E0B0E0A0E02EE0880F991F4D
:1050C000AA1FBB1F2A95D1F78C299D29AE29BF297C
:1050D000F50121816C017D01C22A812F90E0FC0144
:1050E000EE0FFF1FEC0FFD1FE15AFF4F11821082E0
:1050F000FC01EE0FFF1FEE0FFF1FEC0FFD1F13A2B1
:1051000014A215A216A28C0F9D1FFC01ED5AFF4F91
:105110001082183058F5612FCE010E943410EC0136
:10512000892B09F486CF11501330D0F4812F90E0F1
:10513000FC01E25EFD4F1081855E9D4FDC010C910C
:10514000112371F0002361F06AE0812F0E94BC04FA
:105150006AE0802F0E94BC0460E0812F0E947507E6
:10516000B701A601CE010E94C50563CF053008F145
:10517000F501048175801A3009F4E6C01B3009F48A
:10518000E8C0193049F55E01F9E7AF0EB11CD50151
:105190008D919C91892BA9F58FE190E00E943A3A7C
:1051A0004C01472D602F0E942E32F50191828082A2
:1051B00028C083E797E00E944F1880E0DF91CF91ED
:1051C0001F910F91FF90EF90DF90CF90BF90AF9025
:1051D0009F908F907F9008954E01F7E78F0E911C5E
:1051E000D4018D919C91892B61F48FE190E00E9414
:1051F0003A3A5C01472D602F0E942E32F401B182B1
:10520000A082612FCE010E943410EC01892B09F499
:1052100010CF6AE0802F0E94BC046AE0872D0E94B4
:10522000BC041B8E1A8E198E188E1F8A1E8A60E08F
:1052300079E08DE390E0A70196010E941A39B90147
:10524000C90103972430310510F481E090E09D8F6F
:105250008C8F8C8596EF980F943048F0EEECE80F29
:10526000E43028F0E2ECE80FE83008F069C0F9011A
:10527000F695E795E431F10508F470C07397FF8B5C
:10528000EE8B6630710508F46CC0B9016550710988
:10529000798F688FB901660F771F260F371F3695F4
:1052A0002795369527952D30310508F45DC02C5093
:1052B00031093B8F2A8F943050F02EEC280F243088
:1052C00030F022EC280FF0E0E0E0283010F4E8E6BF
:1052D000F0E02081943028F032EC380F383008F4B8
:1052E00046C031E0232B943048F09EEC980F943068
:1052F00028F08E53F0E0E0E0883010F4E8E6F0E0CB
:1053000020832C8536EF320F343098F18EEC820FEB
:10531000843078F182EC820F883070F58DE690E071
:105320009C8B8B8B343058F52650330B81E001C0B9
:10533000880F2A95EAF78D8B8C8D9D8D0197F1F75B
:10534000CE010E94280E75CE5E01FBE7AF0EB11CA8
:105350001ECF5E01FDE7AF0EB11C19CFE1E0F0E01A
:105360008ECF61E070E094CF21E030E0A2CF34E056
:10537000B9CF8BE690E0D4CF90E080E0D1CF88E049
:105380002233C9F284E02333B1F282E0243399F26C
:1053900082EC820F883018F42E53330BC7CF81E094
:1053A000CACF612FCE010E9434107C01892B09F4F1
:1053B00040CEE50111E0101708F03BCE6A816795F9
:1053C000662767958981680FD701ED91FC9101905F
:1053D000F081E02DC70119951E5F2296ECCF119642
:1053E0008C911197811126C03AA137300CF021CE53
:1053F000812F90E00596880F991FFE01E80FF91F95
:105400004330A8F013968C91139720E8829FC00137
:10541000112412962C91822B9183808381E0830F3B
:105420008AA3C80FD11D87FDDA951A8302CE118297
:105430001082F4CF813009F0FCCD9AA119161CF02E
:105440008FEF8AA3F6CD80E0492F092E000C550B73
:10545000282F30E04217530774F480E0E82FF0E083
:105460004E175F078CF0883020F4EC0FFD1F23816E
:1054700022838F5FF3CF2C0F3D1FD90112962C9101
:10548000121761F38F5FE4CF91509AA3D2CD0E949F
:10549000120ECE010E94D63ACCCD612FCE010E94D1
:1054A0003410009709F4C5CDDC01ED91FC91068024
:1054B000F781E02D1995BDCD183008F4BACD612FD4
:1054C000CE010E943410009709F03BCFB2CDCF92AD
:1054D000DF92EF92FF920F931F93CF93DF937A01A6
:1054E0006901C62FD0E08E01000F111F080F191F90
:1054F000D8019E918E918D010097E9F483E090E0B0
:105500000E943A3A209150042033D0F531E0320F16
:1055100030935004FC01208330E0F901EE0FFF1FAF
:10552000E20FF31FEB5AFB4F28EB3BE03283218362
:10553000F80191838083DC01EC912E2F30E0F9019A
:10554000EE0FFF1FE20FF31FEB5AFB4F208126FFE8
:1055500002C02F7B2083F7FE06C020E639E040E240
:1055600052E0D7FC02C09601A701BE01DF91CF91A6
:105570001F910F91FF90EF90DF90CF900C94540A01
:105580002FEFDC012C93D4CFCF92DF92EF92FF92DA
:105590000F931F93CF936037B1F54530A0F1F90118
:1055A000C0814EEF4C0F403370F5EC2FF0E0E55E1C
:1055B000F74F40814F3739F1F9018C01E28020E843
:1055C000E29EC0011124E180E80EF92EF11CC48096
:1055D00020E8C29EC0011124C380C80ED92ED11C60
:1055E00064E08C2F0E94BC049601A7016C2FC801B7
:1055F0000E94672A81E0CF911F910F91FF90EF9059
:10560000DF90CF90089580E0F6CF2EEF260F203365
:1056100068F44430510541F42FEF3FEF4FEF5FEF57
:105620000E94672A81E008950E94A52180E00895E4
:105630008F929F92AF92BF92CF92DF92EF92FF92A2
:105640000F931F93CF93DF93643741F4F901EC017B
:10565000423030F489EA95E00E944F1880E00CC097
:10566000E08083E0E81215C08D819E810E94D63AC9
:105670001E821D821A8281E0DF91CF911F910F91CE
:10568000FF90EF90DF90CF90BF90AF909F908F9062
:105690000895A1E0EA1631F0B2E0EB1205C056E140
:1056A000E52E02C06BE0E62EF1800F2D10E08A811E
:1056B00081114FC01C830B8381E08A8383E190E0DA
:1056C0000E943A3A6C01FC01F582E682F801E0554D
:1056D000F74FE491DC011796EC931797F801E65920
:1056E000F74FE4911896EC9380E89EE3A0E0B0E0D9
:1056F000F60185879687A787B08BDE82CD8262E030
:105700008F2D0E9475070E942608605D77408109F1
:105710009109D60119966D937D938D939C931C9757
:1057200087E352968C930D811E81C8010E94620C02
:10573000882351F0F80186818B3030F08D3098F05D
:105740008551823008F446C060E070E080EC9FE74D
:1057500025C08B819C818017910729F38D819E81C3
:105760000E94D63AABCF618170E090E080E00E9469
:1057700021382DEC3CEC4CEC5DE30E945C384B0195
:105780005C01F801608170E090E080E00E942138C7
:105790009B01AC01C501B4010E945C390E94C8396B
:1057A0002AE0269F8001279F100D11240D80DE81A5
:1057B000C02DCE010E94620C882339F08E818C307E
:1057C00009F484C0B8F48B3061F160E070E080ECE3
:1057D0009FE74DC06081718176276727762790E02B
:1057E00080E00E941F382DEC3CEC4CEC5DE30E9405
:1057F0005C38D4CF8551823040F7EA806E2D70E05E
:10580000762F662766277F778B81682B90E080E074
:105810000E941F382DEC3CEC4CEC5DE30E945C38A0
:105820006FC06A8170E090E080E00E941F384B01F9
:105830005C01CB81C7FF0AC0AC019B0160E070E056
:1058400080E89FEB0E945B394B015C01CF706C2FAD
:1058500070E090E080E00E9421382DEC3CEC4CECB4
:105860005DE30E945C38A50194010E945C3920E050
:1058700030E040E251E40E945C380E94C8394B019C
:105880000E94D40484E70E94AF0480E00E94AF0429
:105890008F2D0E94AF04882D8F770E94AF04C40122
:1058A000880F892F881F990B8F770E94AF04802F54
:1058B0008F770E94AF04C801880F892F881F990B2A
:1058C0008F770E94AF040E94E004D5CEEA806E2D4F
:1058D00070E090E080E00E941F384B015C016B811A
:1058E0006F7070E090E080E00E9421382DEC3CEC7D
:1058F0004CEC5DE30E945C38A50194010E945C3988
:10590000E7FEB5CF9058B3CF1F920F920FB60F920C
:1059100011242F933F938F939F93AF93BF938091C5
:10592000ED049091EE04A091EF04B091F004309159
:10593000EC0423E0230F2D3758F50196A11DB11D6E
:105940002093EC048093ED049093EE04A093EF0475
:10595000B093F0048091F1049091F204A091F304CB
:10596000B091F4040196A11DB11D8093F1049093B0
:10597000F204A093F304B093F404BF91AF919F910C
:105980008F913F912F910F900FBE0F901F90189500
:1059900026E8230F0296A11DB11DD2CF1F920F92B0
:1059A0000FB60F9211240BB60F922F933F934F9384
:1059B0005F936F937F938F939F93AF93BF93EF9377
:1059C000FF93E0910F02F09110021995FF91EF9172
:1059D000BF91AF919F918F917F916F915F914F9107
:1059E0003F912F910F900BBE0F900FBE0F901F9005
:1059F00018951F920F920FB60F9211240BB60F92AB
:105A00002F933F934F935F936F937F938F939F93C6
:105A1000AF93BF93EF93FF93E0910D02F0910E02CD
:105A20001995FF91EF91BF91AF919F918F917F91C8
:105A30006F915F914F913F912F910F900BBE0F90FF
:105A40000FBE0F901F9018951F920F920FB60F92D6
:105A500011240BB60F922F933F934F935F936F9345
:105A60007F938F939F93AF93BF93EF93FF93E091B7
:105A70000302F09104021995FF91EF91BF91AF914C
:105A80009F918F917F916F915F914F913F912F9156
:105A90000F900BBE0F900FBE0F901F9018951F9286
:105AA0000F920FB60F9211240BB60F922F933F93C4
:105AB0004F935F936F937F938F939F93AF93BF9316
:105AC000EF93FF93E0910102F09102021995FF918B
:105AD000EF91BF91AF919F918F917F916F915F9166
